{
  "_format": "hh-sol-artifact-1",
  "contractName": "DFA",
  "sourceName": "contracts/DFA.sol",
  "abi": [
    {
      "inputs": [
        {
          "internalType": "uint256",
          "name": "",
          "type": "uint256"
        }
      ],
      "name": "addresses",
      "outputs": [
        {
          "internalType": "address",
          "name": "",
          "type": "address"
        }
      ],
      "stateMutability": "view",
      "type": "function"
    },
    {
      "inputs": [
        {
          "internalType": "string",
          "name": "userId",
          "type": "string"
        },
        {
          "internalType": "string",
          "name": "password",
          "type": "string"
        }
      ],
      "name": "authenticate",
      "outputs": [
        {
          "internalType": "bool",
          "name": "",
          "type": "bool"
        }
      ],
      "stateMutability": "view",
      "type": "function"
    },
    {
      "inputs": [],
      "name": "getStoredAddresses",
      "outputs": [
        {
          "internalType": "address[]",
          "name": "",
          "type": "address[]"
        }
      ],
      "stateMutability": "view",
      "type": "function"
    },
    {
      "inputs": [
        {
          "internalType": "address",
          "name": "",
          "type": "address"
        }
      ],
      "name": "hashedCredentials",
      "outputs": [
        {
          "internalType": "bytes32",
          "name": "",
          "type": "bytes32"
        }
      ],
      "stateMutability": "view",
      "type": "function"
    },
    {
      "inputs": [
        {
          "internalType": "string",
          "name": "userId",
          "type": "string"
        },
        {
          "internalType": "string",
          "name": "password",
          "type": "string"
        }
      ],
      "name": "storeCredentials",
      "outputs": [],
      "stateMutability": "nonpayable",
      "type": "function"
    }
  ],
  "bytecode": "0x608060405234801561001057600080fd5b5061085a806100206000396000f3fe608060405234801561001057600080fd5b50600436106100575760003560e01c80630bc1f4861461005c578063544541b31461007a578063841bfa9d146100aa578063e3d681f9146100da578063edf26d9b146100f6575b600080fd5b610064610126565b604051610071919061044b565b60405180910390f35b610094600480360381019061008f91906105c7565b6101b4565b6040516100a1919061065a565b60405180910390f35b6100c460048036038101906100bf91906106a1565b61022c565b6040516100d191906106e7565b60405180910390f35b6100f460048036038101906100ef91906105c7565b610244565b005b610110600480360381019061010b9190610738565b61031c565b60405161011d9190610774565b60405180910390f35b606060018054806020026020016040519081016040528092919081815260200182805480156101aa57602002820191906000526020600020905b8160009054906101000a900473ffffffffffffffffffffffffffffffffffffffff1673ffffffffffffffffffffffffffffffffffffffff1681526020019060010190808311610160575b5050505050905090565b60008083836040516020016101ca929190610800565b604051602081830303815290604052805190602001209050806000803373ffffffffffffffffffffffffffffffffffffffff1673ffffffffffffffffffffffffffffffffffffffff168152602001908152602001600020541491505092915050565b60006020528060005260406000206000915090505481565b60008282604051602001610259929190610800565b604051602081830303815290604052805190602001209050806000803373ffffffffffffffffffffffffffffffffffffffff1673ffffffffffffffffffffffffffffffffffffffff168152602001908152602001600020819055506001339080600181540180825580915050600190039060005260206000200160009091909190916101000a81548173ffffffffffffffffffffffffffffffffffffffff021916908373ffffffffffffffffffffffffffffffffffffffff160217905550505050565b6001818154811061032c57600080fd5b906000526020600020016000915054906101000a900473ffffffffffffffffffffffffffffffffffffffff1681565b600081519050919050565b600082825260208201905092915050565b6000819050602082019050919050565b600073ffffffffffffffffffffffffffffffffffffffff82169050919050565b60006103b282610387565b9050919050565b6103c2816103a7565b82525050565b60006103d483836103b9565b60208301905092915050565b6000602082019050919050565b60006103f88261035b565b6104028185610366565b935061040d83610377565b8060005b8381101561043e57815161042588826103c8565b9750610430836103e0565b925050600181019050610411565b5085935050505092915050565b6000602082019050818103600083015261046581846103ed565b905092915050565b6000604051905090565b600080fd5b600080fd5b600080fd5b600080fd5b6000601f19601f8301169050919050565b7f4e487b7100000000000000000000000000000000000000000000000000000000600052604160045260246000fd5b6104d48261048b565b810181811067ffffffffffffffff821117156104f3576104f261049c565b5b80604052505050565b600061050661046d565b905061051282826104cb565b919050565b600067ffffffffffffffff8211156105325761053161049c565b5b61053b8261048b565b9050602081019050919050565b82818337600083830152505050565b600061056a61056584610517565b6104fc565b90508281526020810184848401111561058657610585610486565b5b610591848285610548565b509392505050565b600082601f8301126105ae576105ad610481565b5b81356105be848260208601610557565b91505092915050565b600080604083850312156105de576105dd610477565b5b600083013567ffffffffffffffff8111156105fc576105fb61047c565b5b61060885828601610599565b925050602083013567ffffffffffffffff8111156106295761062861047c565b5b61063585828601610599565b9150509250929050565b60008115159050919050565b6106548161063f565b82525050565b600060208201905061066f600083018461064b565b92915050565b61067e816103a7565b811461068957600080fd5b50565b60008135905061069b81610675565b92915050565b6000602082840312156106b7576106b6610477565b5b60006106c58482850161068c565b91505092915050565b6000819050919050565b6106e1816106ce565b82525050565b60006020820190506106fc60008301846106d8565b92915050565b6000819050919050565b61071581610702565b811461072057600080fd5b50565b6000813590506107328161070c565b92915050565b60006020828403121561074e5761074d610477565b5b600061075c84828501610723565b91505092915050565b61076e816103a7565b82525050565b60006020820190506107896000830184610765565b92915050565b600081519050919050565b600081905092915050565b60005b838110156107c35780820151818401526020810190506107a8565b60008484015250505050565b60006107da8261078f565b6107e4818561079a565b93506107f48185602086016107a5565b80840191505092915050565b600061080c82856107cf565b915061081882846107cf565b9150819050939250505056fea26469706673582212206dbd28cdb601ac75a2080f97bfe6edb17e1ef5402a76b54510158186b67ecd4764736f6c63430008130033",
  "linkReferences": {},
  "deployedLinkReferences": {}
}